:020000040800F2
:10000000A0050020B90600088D0400088F04000830
:1000100093040008970400089B04000800000000F7
:100020000000000000000000000000009F04000825
:10003000A104000800000000A3040008A5040008B3
:10004000D3060008D3060008D3060008D30600082C
:10005000D3060008D3060008D3060008D30600081C
:10006000D3060008D3060008D3060008D30600080C
:10007000D3060008D3060008D3060008D3060008FC
:10008000D3060008D3060008D3060008D3060008EC
:10009000D3060008D3060008D3060008D3060008DC
:1000A00025260008D3060008D3060008D30600085A
:1000B000D3060008D3060008D3060008D3060008BC
:1000C000D3060008D3060008D3060008D3060008AC
:1000D000D3060008D3060008D3060008572D0008F1
:1000E000D3060008D3060008D3060008D30600088C
:1000F000D3060008D3060008D3060008D30600087C
:10010000D3060008D3060008D3060008D30600086B
:10011000D3060008D3060008D3060008D30600085B
:10012000D3060008D3060008D3060008D30600084B
:10013000D3060008D3060008D3060008D30600083B
:10014000D3060008D3060008D3060008D30600082B
:10015000D3060008D3060008D3060008D30600081B
:10016000D3060008D3060008D3060008D30600080B
:10017000D3060008D3060008D3060008D3060008FB
:10018000D3060008D3060008DFF80CD003F062FDA8
:1001900000480047E1010008A005002070B50025D7
:1001A000002419E04FF40071A04800F00BFC05207A
:1001B00002F028FE4FF480719C4800F0E7FBA0405D
:1001C0002843C5B24FF40071984800F0F9FB0520B0
:1001D00002F018FE601CC4B2082CE3DB284670BD98
:1001E00086B000F0CFF9A82002F0F2FD02F0A8FAE4
:1001F00002F076FA02F0CAFC03F0C4F901F0D2FF73
:1002000002F031F802F07BF802F0C5F802F00FF9C5
:1002100002F059F902F050FFDFED851A9FED851AC3
:10022000DFED840A9FED840A844802F0C0FE84A0BA
:1002300002F01FFD00BFFFF7B1FF834908700846B9
:100240000078C0090978C1F380117F4A1278C2F39F
:1002500040127D4B1B78C3F30013CDE90232CDE988
:10026000041079480078C0F3C00077490978C1F3D9
:100270008001CDE900107448007800F00102724856
:100280000078C0F3400371A1794803F093FD7848EA
:1002900002F0EFFC4FF48071754803F0A0FA6A4851
:1002A000007803F0A1F9734880ED000A012002F004
:1002B000F1FDC0E72DE9F0412DED088B04460D4618
:1002C00016461F4602F071F908EE100A02F088F98E
:1002D00008EE900A02F08BF909EE100A02F09CF980
:1002E00009EE900AB8EEC80AB0EE40AAB8EEE80AE5
:1002F000F0EE40AAB8EEC90AB0EE40BAB8EEE90A8C
:10030000F0EE40BAF0EE4A0A00EE104AB8EEC00A2B
:100310004A4802F063FEBDEEC00A10EE100A40B279
:1003200055490870F0EE6A0A00EE105AB8EEC00A9D
:10033000424802F053FEBDEEC00A10EE100A40B271
:100340004E490870F0EE4B0A00EE106AB8EEC00A93
:100350003A4802F043FEBDEEC00A10EE100A40B269
:1003600047490870F0EE6B0A00EE107AB8EEC00A4A
:10037000324802F033FEBDEEC00A10EE100A40B261
:10038000404908703C4890F9000000EE100AB8EEB1
:10039000C00ADFED3D0A80EE201ABDEEC10A10EE64
:1003A000100A4FFA80F8404602F027FA334890F9D5
:1003B000000000EE100AB8EEC00ADFED330A80EE4E
:1003C000201ABDEEC10A10EE100A4FFA80F840461E
:1003D00002F030FA2A4890F9000000EE100AB8EE58
:1003E000C00ADFED290A80EE201ABDEEC10A10EE28
:1003F000100A4FFA80F8404602F039FA214890F985
:10040000000000EE100AB8EEC00ADFED1F0A80EE11
:10041000201ABDEEC10A10EE100A4FFA80F84046CD
:1004200002F042FABDEC088BBDE8F0810004024006
:100430000000C842CDCCCC3D3333333F54010020C3
:10044000BFC9D2D4C1CB0000080000204469677442
:10045000616C2025642D25642D25642D25642D25B2
:10046000642D25642D25642D25640D0A00000000EF
:1004700054000020040000200000002001000020A3
:10048000020000200300002006811940704700BFD1
:10049000FEE700BFFEE700BFFEE700BFFEE77047D4
:1004A00070477047704700000CB500200190009025
:1004B0007648006840F480307449086000BF734893
:1004C000006800F4003000900198401C01900098F2
:1004D00018B90198B0F5A04FF1D16C48006800F44C
:1004E000003010B10120009001E000200090009841
:1004F000012846D165484030006840F0805063498B
:10050000403108606248006840F44040604908603B
:100510005E48083000685D49083108600846006898
:1005200040F4004008600846006840F4A0500860AD
:100530005848091F0860081F006840F08070091FB4
:10054000086000BF5148006800F000700028F9D032
:1005500040F20570504908604C480830006820F0AF
:1005600003004A49083108600846006840F002006C
:10057000086000BF45480830006800F00C000828FB
:10058000F8D10CBD10B54548006840F470004349EF
:1005900008603E48006840F001003C4908600020C7
:1005A0003A4908310860394800683D4908403749F0
:1005B00008603C48091D0860081F006820F480207E
:1005C000091F0860002031490C310860FFF76CFFFB
:1005D0004FF0006031498039086010BD70B50020CF
:1005E0000022022300240221284D08352D6805F041
:1005F0000C0020B1042806D0082834D107E02A4D89
:100600002A4E356033E02A4D284E35602FE01F4DCD
:100610002D1D2D68C5F380541C4D2D1D2D6805F032
:100620003F0154B1224DB5FBF1F5184E361D366829
:10063000C6F3881605FB06F209E01B4DB5FBF1F584
:10064000124E361D3668C6F3881605FB06F20F4DAE
:100650002D1D2D68C5F301456D1C6B00B2FBF3F534
:10066000124E356003E0104D104E356000BF00BFE4
:10067000064D08352D68C5F303150E4E705D0B4D04
:100680002D68C540094E356070BD0000003802403D
:100690000070004008544007003C024088ED00E034
:1006A000FFFFF6FE103000240024F40010000020AC
:1006B00000127A00140000200648804706480047D0
:1006C000FEE7FEE7FEE7FEE7FEE7FEE7FEE7FEE702
:1006D000FEE7FEE78505000889010008324901436D
:1006E000324A1160704770B5002100230F22C47890
:1006F0001CB32E4C246804F4E064C4F5E064C4F335
:100700000721C1F10404E3B20A4144789C40E1B2FC
:100710008478144021430C07210E254C057861553F
:10072000047804F01F050124AC4005786D11AD007C
:1007300005F1E025C5F8004109E0047804F01F0543
:100740000124AC401B4D0678761145F8264070BD5B
:10075000194A0A400243154B1B1F1A60704739B1F2
:10076000124A121D12680243104B1B1D1A6006E04C
:100770000E4A121D126882430C4B1B1D1A607047F3
:10078000042808D14FF0E021096941F004014FF03D
:10079000E022116107E04FF0E021096921F0040136
:1007A0004FF0E022116170470000FA050CED00E007
:1007B00000E400E080E100E080FFFF1F10B5044688
:1007C0009848844208D10121084600F086FB0021A8
:1007D000012000F082FB76E09348844208D1012199
:1007E000022000F07AFB0021022000F076FB6AE094
:1007F0008E48844208D10121042000F06EFB0021C4
:10080000042000F06AFB5EE08948844208D101219F
:10081000082000F062FB0021082000F05EFB52E09F
:100820008448844208D10121102000F056FB0021A9
:10083000102000F052FB46E07F48844208D101219D
:10084000202000F04AFB0021202000F046FB3AE087
:100850007A48844208D10121402000F03EFB00216B
:10086000402000F03AFB2EE07548844208D1012177
:10087000802000F032FB0021802000F02EFB22E0DF
:100880007048844208D10121801500F026FB002128
:10089000A01500F022FB16E06B48844208D101212C
:1008A000401500F01AFB0021601500F016FB0AE06D
:1008B0006648844207D10121001500F00EFB00219B
:1008C000201500F00AFB10BDF0B50A4600210023F8
:1008D000002400BF3DE0012505FA01F3156805EA93
:1008E00003049C4234D105684F000326BE40B54343
:1008F000056015794E00B5400668354305601579E9
:10090000012D02D01579022D16D185684F000326DE
:10091000BE40B543856055794E00B5408668354385
:100920008560456801268E40B543456045689679E7
:100930008E40B6B235434560C5684F000326BE40C1
:10094000B543C560D5794E00B540C6683543C5602E
:10095000491C1029BFD3F0BD4FF6FF710160002183
:10096000017141718171C171704708B54FF48032D6
:100970000092009A0A430092009AC261C161009AF3
:10098000C261C2690092C269009208BD024600209D
:1009900013690B400BB1012000E0002070470146B5
:1009A000086980B270470246002053690B400BB1C2
:1009B000012000E0002070470146486980B270477E
:1009C00001837047418370470AB1018300E041838E
:1009D00070474161704742694A4042617047F0B5D3
:1009E000002300244D07ED0E02FA05F3CE1000F1AE
:1009F000200555F826504E07F70E0F26BE40B5438A
:100A0000CF1000F1200646F82750CE1000F1200547
:100A100055F8265045EA0304CE1000F1200545F8AC
:100A20002640F0BD000002400004024000080240E1
:100A3000000C024000100240001402400018024066
:100A4000001C024000200240002402400028024016
:100A5000F948006840F00100F74908600020F649B5
:100A600008310860F4480068F4490840F249086019
:100A7000F348091D0860F348EF4984310860F048E5
:100A80001038091D0860EC48006820F48020EA490D
:100A900008600020E8490C310860E7498C310860A3
:100AA00070470021E44A921C11701146087070478B
:100AB00010B501460022002300204A11012A02D16C
:100AC000DD4C236808E0022A03D1DB4C7034236834
:100AD00002E0D94C7434236801F01F0201249440D1
:100AE0001C400CB1012000E0002010BD38B50020F2
:100AF00000900024002500BF3120FFF7D9FF0546F4
:100B00000098401C00900098B0F5A04F01D0002D37
:100B1000F2D03120FFF7CCFF08B1012400E000241F
:100B2000204638BD01460020C34A106820F0F80076
:100B300040EAC10010607047C34908607047002157
:100B4000BD4A703211701170012802D004280AD1F8
:100B500004E00121B84A7032117005E00521B64A5F
:100B60007032117000E000BF00BF7047B7490860E5
:100B7000704770B5049C41EA82150126C6EB530606
:100B800045EA0645054345EA0465AB4E361D35602A
:100B900070BDAD4908667047820142EA0172A64BFA
:100BA00084331A607047A8498866704710B583017E
:100BB00043EA016343EA02739F4C8834236010BD0B
:100BC000A14908677047A049C864704702460020E1
:100BD000994B0833186820F0EC6042EA010318438F
:100BE000954B08331860704702460020924B08333B
:100BF000186820F0784042EA010318438E4B08330E
:100C000018607047014600208B4A0832106820F0B7
:100C1000030008431060704787480830006800F000
:100C20000C00704701460020834A0832106820F00B
:100C3000F000084310607047014600207E4A0832E9
:100C4000106820F4E050084310607047014600200F
:100C5000794A0832106820F4604040EAC100106010
:100C60007047F0B50021002200240225002602234F
:100C7000714F08373F6807F00C0121B1042905D0F6
:100C8000082937D105E0724F076036E0714F0760E1
:100C900033E0694F3F1D3F68C7F38056664F3F1DE5
:100CA0003F6807F03F036EB16A4FB7FBF3F7DFF819
:100CB00088C10CF1040CDCF800C0CCF3881C07FBE5
:100CC0000CF40CE0624FB7FBF3F7DFF86CC10CF1EA
:100CD000040CDCF800C0CCF3881C07FB0CF4564F66
:100CE0003F1D3F68C7F301477F1C7D00B4FBF5F74C
:100CF000076002E0564F076000BF00BF4E4F083745
:100D00003F6807F0F0010909534F7A5C0768D74044
:100D10004760494F08373F6807F4E051890A4E4F52
:100D20007A5C4768D7408760434F08373F6807F4CD
:100D30006041490B484F7A5C4768D740C760F0BDB7
:100D4000002100F44072B2F5407F0AD13A4A0832DD
:100D5000116821F4F811414A02401143364A083221
:100D60001160354A70321268C0F30B031A43324BDC
:100D700070331A6070473549443908607047334909
:100D800040390860704736490860704701460020C6
:100D9000294A8C32106820F01F004A1E1043264A50
:100DA0008C321060704701460020234A8C32106854
:100DB00020F4F8504A1E40EA02201F4A8C3210608C
:100DC0007047014600201C4A8C32106820F4401005
:100DD00008431060704701460020174A8C321068A3
:100DE00020F4400008431060704701460020124A7A
:100DF0008C32106820F44030084310607047194965
:100E00000860704739B10C4A3032126802430A4B0D
:100E100030331A6006E0084A303212688243064BCB
:100E200030331A607047F9B1034A34321268024312
:100E3000014B34331A601CE000380240FFFFF6EA31
:100E4000103000240030002000004742800E47424E
:100E50000024F40000127A0024000020FFFCFF0FA1
:100E60005C014742E01147428F4A126882438E4B31
:100E70001A60704739B18C4A121D126802438A4BBE
:100E80001B1D1A6006E0884A121D12688243864BB9
:100E90001B1D1A60704739B1834A0C321268024335
:100EA000814B0C331A6006E07F4A0C321268824391
:100EB0007D4B0C331A60704739B17B4A103212688F
:100EC0000243794B10331A6006E0774A10321268F9
:100ED0008243754B10331A60704739B1724A243A15
:100EE00012680243704B243B1A6006E06E4A243AB3
:100EF000126882436C4B243B1A60704739B16A4ACE
:100F0000203A12680243684B203B1A6006E0664AAA
:100F1000203A12688243644B203B1A60704739B113
:100F2000614A1C3A126802435F4B1C3B1A6006E0A0
:100F30005D4A1C3A126882435B4B1C3B1A60704747
:100F400039B1594A143A12680243574B143B1A609C
:100F500006E0554A143A12688243534B143B1A6018
:100F6000704739B1504A103A126802434E4B103B59
:100F70001A6006E04C4A103A126882434A4B103B12
:100F80001A60704739B1484A1C3212680243464B16
:100F90001C331A6006E0444A1C3212688243424BFA
:100FA0001C331A60704739B13F4A2032126802433D
:100FB0003D4B20331A6006E03B4A203212688243E0
:100FC000394B20331A60704739B1374A24321268DE
:100FD0000243354B24331A6006E0334A2432126848
:100FE0008243314B24331A60704739B12E4A2C3278
:100FF000126802432C4B2C331A6006E02A4A2C322A
:1010000012688243284B2C331A60704739B1264A44
:10101000303212680243244B30331A6006E0224A11
:10102000303212688243204B30331A6070470128F7
:1010300008D11D493C31096841F008011A4A3C3287
:10104000116007E018493C31096821F00801164A8F
:101050003C321160704739B1134A273A1278024383
:10106000114B273B1A7006E00F4A273A1278824349
:101070000D4B273B1A7070470B484030006840F01A
:101080008070094940310860704701460020064AD7
:10109000283A12680A400AB1012000E00020704797
:1010A00001492639087070473438024010B50446AB
:1010B000FE48844208D101210846FFF752FF002173
:1010C0000120FFF74EFF9DE0B4F1804F08D10121D0
:1010D0000846FFF735FF00210120FFF731FF91E0BF
:1010E000F348844208D101210220FFF729FF0021A3
:1010F0000220FFF725FF85E0EE48844208D1012158
:101100000420FFF71DFF00210420FFF719FF79E0FD
:10111000E948844208D101210820FFF711FF00218E
:101120000820FFF70DFF6DE0E448844208D101215B
:101130001020FFF705FF00211020FFF701FF61E0FD
:10114000DF48844208D101212020FFF7F9FE002169
:101150002020FFF7F5FE55E0DA48844208D101214E
:101160000220FFF7FEFE00210220FFF7FAFE49E011
:10117000D548844209D101210804FFF7F2FE00217D
:101180004FF48030FFF7EDFE3CE0D048844209D1B7
:1011900001214804FFF7E5FE00214FF40030FFF77E
:1011A000E0FE2FE0CA48844209D101218804FFF7FC
:1011B000D8FE00214FF48020FFF7D3FE22E0C5487F
:1011C000844208D101214020FFF7BAFE00214020CF
:1011D000FFF7B6FE16E0C048844208D10121802006
:1011E000FFF7AEFE00218020FFF7AAFE0AE0BB4811
:1011F000844207D101218015FFF7A2FE0021A0152E
:10120000FFF79EFE10BD00220288A84B98420ED028
:10121000AC4B98420BD0B0F1804F08D0A44B984211
:1012200005D0A44B984202D0A34B984204D14FF66C
:101230008F731A404B881A43A04B984207D0A04B9B
:10124000984204D04FF6FF431A400B891A4302809C
:101250004B68C3620B880385944B984202D0994B2C
:10126000984201D18B7A03860123838270474FF025
:10127000FF3141600021018001814180817270470E
:101280000185828270470A46002101884FF68F73DC
:10129000194011430180704741627047C162704735
:1012A0000146486A70470146088D704721B102889F
:1012B00042F00202028004E002884FF6FD731A40F9
:1012C0000280704721B1028842F00402028004E0EB
:1012D00002884FF6FB731A400280704721B10288E2
:1012E00042F08002028004E002884FF67F731A40C9
:1012F0000280704702884FF6F7731A400280028816
:101300000A430280704702884FF6FF431A4002806A
:1013100002880A430280704721B1028842F001022C
:10132000028004E002884FF6FE731A400280704784
:1013300070B5002400220023058C4FF6FE76354060
:101340000584028C8388048B4FF68F752C40B51E64
:101350002C400D882C43751E2A408D892A434D88C8
:101360002A43524DA84202D0564DA84213D14FF6FF
:10137000F7752A40CD892A434FF6FB752A408D88A0
:101380002A434FF6FF652B404FF6FF552B400D8A41
:101390002B434D8A2B43838004838D6845630284ED
:1013A00070BD70B5002400220023058C4FF6EF7647
:1013B00035400584028C8388048B48F6FF752C40E9
:1013C0004FF6FF452C400D884FF6FF7606EA0525BF
:1013D0002C434FF6DF752A408D8906EA05152A430E
:1013E0004D8806EA05152A43304DA84202D0354DF6
:1013F000A8421DD14FF67F752A40CD894FF6FF7662
:1014000006EA05152A434FF6BF752A408D8806EA7D
:1014100005152A434FF6FF352B404FF2FF752B4041
:101420000D8A06EA85052B434D8A06EA85052B437E
:10143000838004838D688563028470BD70B5002449
:1014400000220023058C4FF6FF6635400584028C90
:101450008388848B4FF68F752C404FF6FC752C409B
:101460000D882C434FF6FF552A408D894FF6FF76A5
:1014700006EA05252A434D8806EA05252A430B4D31
:10148000A84202D00F4DA84238D14FF2FF752A4032
:10149000CD894FF6FF7606EA05252A434FF6FF353C
:1014A0002A408D8806EA05252A4319E000000140FC
:1014B0000004004000080040000C00400010004004
:1014C000001400400004014000400140004401407D
:1014D0000048014000180040001C0040002000406F
:1014E0004EF6FF752B404DF6FF752B400D8A06EA30
:1014F00005152B434D8A06EA05152B43838084830B
:101500008D68C563028470BD70B50022002300247D
:10151000058C4EF6FF7635400584038C8488828BDB
:1015200048F6FF752A404FF6FF452A400D884FF6D2
:10153000FF7606EA05252A434DF6FF752B408D8977
:1015400006EA05352B434D8806EA05352B43FE4D4B
:10155000A84202D0FD4DA84208D14BF6FF752C40A1
:101560000D8A4FF6FF7606EA85152C438480828328
:101570008D680564038470BD0021018041808180F5
:1015800081608181C18101824182704770B50346CB
:10159000002000241846183001258D40ACB21D8C67
:1015A000A5431D8409B108290AD100EB6100056833
:1015B0004FF68F76354005600568154305600FE0EE
:1015C0000D1FC5F34E052844056848F6FF763540E3
:1015D000056005684FF6FF7606EA0226354305608A
:1015E00070BD4163704781637047C1637047016498
:1015F00070470A460021018B4FF68F731940114343
:10160000018370470A460021018B48F6FF73194099
:101610004FF6FF7303EA02231943018370470A461A
:101620000021818B4FF68F731940114381837047DE
:101630000A460021818B48F6FF7319404FF6FF736D
:1016400003EA02231943818370470A460021018B74
:101650004FF6F77319401143018370470A46002182
:10166000018B4FF2FF7319404FF6FF7303EA022319
:101670001943018370470A460021818B4FF6F773A7
:1016800019401143818370470A460021818B4FF234
:10169000FF7319404FF6FF7303EA02231943818356
:1016A00070470A460021018B4FF6FB731940114326
:1016B000018370470A460021018B4FF6FF33194022
:1016C0004FF6FF7303EA02231943018370470A466A
:1016D0000021818B4FF6FB731940114381837047C2
:1016E0000A460021818B4FF6FF3319404FF6FF73F6
:1016F00003EA02231943818370470A460021018BC4
:101700004FF67F7319401143018370470A46002149
:10171000018BC1F30E014FF6FF7303EA0223194355
:10172000018370470A460021818B4FF67F73194071
:101730001143818370470A460021818BC1F30E015A
:101740004FF6FF7303EA02231943818370470A4669
:101750000021018C4FF6FD7319401143018470473D
:101760000A460021018C4FF6F7731940114301849A
:1017700070470A460021018C4FF6DF7319404FF67F
:10178000FF7303EA02131943018470470A460021DC
:10179000018C4FF67F7319404FF6FF7303EA021373
:1017A0001943018470470A460021018C4FF6FF530C
:1017B00019404FF6FF7303EA02231943018470476F
:1017C0000A460021018C4FF2FF7319404FF6FF7358
:1017D00003EA02231943018470470A460021018C61
:1017E0004DF6FF7319404FF6FF7303EA02331943B6
:1017F0000184704730B5002301248C40A3B2048CCF
:101800009C430484048C02FA01F5ADB22C43048499
:1018100030BD30B5002304248C40A3B2048C9C431B
:101820000484048C02FA01F5ADB22C43048430BD6B
:10183000828B4FF2FF331A408283828B4FF6FF7305
:1018400003EA01231A4382837047F0B50C4615461C
:10185000002100220026078C4EF6FF7C07EA0C07C9
:101860000784818B028C4FF6FF7707EA043640F637
:10187000FF4739404FF6FF7707EA052739434FF610
:10188000FF7707EA0337394345F6FF773A4046F4D6
:1018900080573A4381830284F0BD828B4FF6F37305
:1018A0001A408283828B0A4382837047F0B50C46CC
:1018B0001546002100220026078C4FF6FF6C07EA30
:1018C0000C070784818B028C4FF6FF7707EA04260A
:1018D0004FF60C7739404FF6FF7707EA03172F438F
:1018E00039434FF2FF573A4046F480773A438183B9
:1018F0000284F0BD028B4FF2FF331A400283028B49
:101900004FF6FF7303EA01231A4302837047F0B5D1
:101910000C461546002100220026078C4FF6EF7C6E
:1019200007EA0C070784018B028C4FF6FF7707EA62
:10193000041640F6FF4739404FF6FF7707EA0337B2
:1019400039434FF6FF7703E00000014000040140F7
:1019500007EA052739434FF65F773A4046F010070C
:101960003A4301830284F0BD028B4FF6F3731A40B1
:101970000283028B0A4302837047F0B50C4615467A
:1019800000210022068C4FF6FE773E400684018B34
:10199000028C4FF60C7631407E1C06EA03162E436D
:1019A00031434FF6F576324044F00106324301836D
:1019B0000284F0BD70B505460C46208850B92389D5
:1019C000A28861882846FFF7D8FFE1882846FFF7FC
:1019D000CBFF25E0208804280AD12389A2886188CA
:1019E0002846FFF794FFE1882846FFF783FF17E0BA
:1019F000208808280AD12389A28861882846FFF711
:101A000055FFE1882846FFF748FF09E02389A288AF
:101A100061882846FFF719FFE1882846FFF708FF8D
:101A200070BD002101804180012181800021C180A1
:101A3000018170472DE9F04105460C46002601273B
:101A4000608808B9022600E00026A088012801D19C
:101A5000022700E001272088A0B92389A288618895
:101A60002846FFF78AFFE1882846FFF77DFF238994
:101A70003A4631462846FFF74AFFE1882846FFF7F5
:101A800039FF13E02389A28861882846FFF73FFFCA
:101A9000E1882846FFF72EFF23893A46314628463B
:101AA000FFF76BFFE1882846FFF75EFFBDE8F08196
:101AB0000146486B70470146886B70470146C86B0A
:101AC00070470146086C70470A884B881A438B8818
:101AD0001A43CB881A430B891A434B891A438B89C3
:101AE0001A43A0F844207047002101804180818082
:101AF000C180018141818181704731B1B0F84420BA
:101B000042F40042A0F8442005E0B0F84420C2F3BB
:101B10000E02A0F84420704721B1828842F00402EE
:101B2000828004E082884FF6FB731A4082807047FF
:101B300021B1828842F00102828004E082884FF65F
:101B4000FE731A40828070471AB183890B438381E8
:101B500002E083898B43838170478182704702460C
:101B60000020138A0B400BB1012000E000207047D9
:101B7000CA430282704730B5024600200023002489
:101B8000158A05EA0103958905EA010413B10CB130
:101B9000012000E0002030BDCA430282704741EAC4
:101BA0000203A0F8483070471AB183890B43838140
:101BB00002E083898B438381704721B1828842F0A0
:101BC0000802828004E082884FF6F7731A40828010
:101BD000704701894FF6F8721140018170470A463B
:101BE000002101894FF68F7319401143018170471D
:101BF00030B504460D4629462046FFF7F0FF208900
:101C000040F00700208130BD2DE9F04104460D462B
:101C100016461F46602D06D13B460122314620461E
:101C2000FFF775FE05E03B46012231462046FFF7EF
:101C3000A4FE29462046FFF7D2FF208940F0070086
:101C40002081BDE8F08130B50C4600210189C9B280
:101C50004FF6FF7505EA0325154325432943018106
:101C600030BD2DE9F04105460E4617469846002442
:101C700043463A4631462846FFF7E5FF2C894FF6A2
:101C8000F870044044F007044FF68F70044044F0AD
:101C900070042C81BDE8F081F0B504460D4616466F
:101CA0001F463B46324629462046FFF7CCFF208997
:101CB00040F480402081F0BD82884FF68F731A4037
:101CC000828082880A438280704702894FF6F873C7
:101CD0001A40028102890A430281704702894FF645
:101CE0007F731A40028102890A4302817047F0B56E
:101CF0000C4615461E460021002200230189028B56
:101D0000038C4FF6F877394021434FF6FC473A40B1
:101D100040F201173A434FF6DD773B404FF6FF772D
:101D200007EA06172F433B43018102830384F0BD7A
:101D300021B1828842F08002828004E082884FF6DE
:101D40007F731A4082807047A0F8501070470000DF
:101D500010B50446FA48844208D101211020FFF74B
:101D600000F900211020FFF7FCF857E0F548844205
:101D700009D101214804FFF7E3F800214FF40030B6
:101D8000FFF7DEF84AE0F048844209D101218804D7
:101D9000FFF7D6F800214FF48020FFF7D1F83DE09F
:101DA000EA48844209D10121C804FFF7C9F800219B
:101DB0004FF40020FFF7C4F830E0E548844209D131
:101DC00001210805FFF7BCF800214FF48010FFF750
:101DD000B7F823E0DF48844208D101212020FFF733
:101DE000C0F800212020FFF7BCF817E0DA48844251
:101DF00009D101218807FFF7A3F800214FF08040A7
:101E0000FFF79EF80AE0D548844207D1012140053A
:101E1000FFF796F800216005FFF792F810BD2DE955
:101E2000FF4705460E460024A14600BFA046B089E4
:101E300000B100BF2C8A24F44054F08804432C8263
:101E4000AC8941F20C608443B088318908437189C0
:101E500008430443AC81AC8A24F44074B089044341
:101E6000AC826846FEF7FDFEB548854202D0B9480F
:101E7000854202D1DDF80C9001E0DDF80890A889D8
:101E800000F4004040B109EBC90000EB09103168D3
:101E90004900B0FBF1F707E009EBC90000EB0910BE
:101EA00031688900B0FBF1F76420B7FBF0F0040162
:101EB0002009642101FB1078A88900F4004040B19A
:101EC000322000EBC800B0FBF1F000F00700044343
:101ED00008E0322000EB08106421B0FBF1F000F0C4
:101EE0000F0004432C81BDE8FF874FF416510160B9
:101EF00000218180C18001810C21418100218181EB
:101F0000704710B502460020108A20F470600B88DC
:101F10004C8823438C882343CC8823431843108266
:101F200010BD0021018041808180C180704721B1B6
:101F3000828942F40052828104E082894DF6FF7367
:101F40001A4082817047028B02F47F420283028B27
:101F50000A430283704721B1828942F400428281A0
:101F600003E08289C2F30E028281704721B1828A26
:101F700042F40062828204E0828A4FF2FF731A40C8
:101F800082827047C1F308028280704701468888C8
:101F9000C0F308007047028A4FF6F0731A400282BD
:101FA000028A0A430282704721B1828942F002020A
:101FB000828104E082894FF6FD731A408281704766
:101FC00082894FF2FF731A40828182890A4382819B
:101FD0007047028A4FF6DF731A400282028A0A4370
:101FE0000282704721B1028A42F48042028204E0F8
:101FF000028A4BF6FF731A4002827047818941F0D2
:1020000001018181704721B1828A42F008028282F7
:1020100004E0828A4FF6F7731A4082827047028B7F
:10202000D2B20283028B42EA01220283704721B1BD
:10203000828A42F02002828204E0828A4FF6DF73B5
:102040001A408282704721B1828A42F01002828255
:1020500004E0828A4FF6EF731A4082827047828AC8
:102060004FF6FB731A408282828A0A43828270474B
:1020700021B1828A42F00202828204E0828A4FF613
:10208000FD731A40828270471AB1838A0B438382A0
:1020900002E0838A8B4383827047F0B503460024B5
:1020A00000260025002040F66A17B94200D100BF83
:1020B0001846C1F3421401F01F06012707FA06F57E
:1020C000012C01D10C3004E0022C01D1103000E0D1
:1020D00014301AB107682F43076002E00768AF4366
:1020E0000760F0BD02460020B1F5007F00D100BFBF
:1020F00013880B400BB1012000E00020704701F471
:102100000072B2F5007F00D100BFCA430280704761
:1021100070B50246002400230025002040F66A1610
:10212000B14200D100BFC1F3421501F01F030126E7
:1021300006FA03F3012D13D19689334017E000000E
:10214000001001400044004000480040004C0040A6
:10215000005000400014014000780040007C004026
:10216000022D02D1168A334001E0968A33400C12C8
:10217000012606FA04F41688344013B10CB101208C
:1021800000E0002070BD10B50022002340F66A1464
:10219000A14200D100BF0A1201249440A3B2DC4343
:1021A000048010BD00B589B001210846FEF773FE1A
:1021B00001210220FEF726FE01210846FEF722FE3D
:1021C0000820019002208DF8080000208DF80B00F7
:1021D00002208DF8090001A9F848FEF775FB0122DD
:1021E0000321F648FEF7FBFB2020019002208DF82A
:1021F000080000208DF80B0002208DF8090001A9CD
:10220000EF48FEF761FB01220521ED48FEF7E7FBF1
:1022100006A8FFF72CF84FF6FF7007900020ADF8E6
:102220001800ADF81A0006A94FF08040FEF7EBFF4A
:102230000A231A4603215807FFF759FD03A8FFF7A1
:10224000F0FB0620ADF8140003A94FF08040FFF723
:10225000B1FB01218807FFF75FF800204FF08041B4
:10226000486209B000BD00B589B001210420FEF725
:1022700012FE01210220FEF7C5FDC02001900220C0
:102280008DF8080000208DF80B0002208DF8090061
:1022900001A9CA48FEF718FB02220621C748FEF72B
:1022A0009EFB02220721C548FEF799FB06A8FEF710
:1022B000DEFF4FF6FF7007900020ADF81800ADF874
:1022C0001A0006A9BF48FEF79EFF0A231A460321FB
:1022D000BC48FFF70CFD03A8FFF7A3FB0620ADF8F1
:1022E000140003A9B748FFF765FB0121B548FFF7C4
:1022F00013F80020B3492431086009B000BD00B5CF
:1023000089B001210220FEF7D7FD01210420FEF74C
:1023100079FDC020019002208DF8080000208DF882
:102320000B0002208DF8090001A9A748FEF7CCFA9E
:1023300003220621A448FEF752FB03220721A248EC
:10234000FEF74DFB06A8FEF792FF4FF6FF700790D1
:102350000020ADF81800ADF81A0006A99B48FEF75A
:1023600052FF0A231A4603219848FFF7C0FC03A82E
:10237000FFF757FB0620ADF8140003A99348FFF7B9
:1023800019FB01219148FEF7C7FF00208F49243136
:10239000086009B000BD00B589B001210846FEF70C
:1023A0008BFD01210846FEF72DFD4FF44070019092
:1023B00002208DF8080000208DF80B0002208DF817
:1023C000090001A97E48FEF77FFA012208217C4816
:1023D000FEF705FB012209217948FEF700FB06A85C
:1023E000FEF745FF4FF6FF7007900020ADF818008C
:1023F000ADF81A0006A97648FEF705FF0A231A462B
:1024000003217348FFF773FC03A8FFF70AFB0620BC
:10241000ADF8140003A96E48FFF7CCFA01216C480F
:10242000FEF77AFF00206A49486209B000BD00B596
:1024300089B001210820FEF72EFD01210846FEF794
:10244000E1FC0320019002208DF8080000208DF8A7
:102450000B0002208DF8090001A95948FEF734FA53
:10246000022200215648FEF7BAFA022201215448FE
:10247000FEF7B5FA06A8FEF7FAFE4FF6FF700790D2
:102480000020ADF81800ADF81A0006A95148FEF773
:10249000BAFE0A231A4603214E48FFF728FC03A878
:1024A000FFF7BFFA0620ADF8140003A94948FFF76B
:1024B00081FA01214748FEF72FFF002045492431CA
:1024C000086009B000BD10B58AB001210804FEF70C
:1024D000F3FC01210846FEF795FC0C200190022038
:1024E0008DF8080001208DF80B0002208DF80900FE
:1024F00001A93348FEF7E8F9032202213048FEF72C
:102500006EFA032211462E48FEF769FA06A8FEF776
:10251000AEFE4FF6FF7007905320ADF81800002074
:10252000ADF81A0006A92C48FEF76DFE03A8FFF7C8
:1025300078FA0020ADF80C00ADF80E000120ADF8DF
:1025400010000620ADF8140003A92348FFF732FA63
:102550000420ADF80C0003A91F48FFF72BFA012255
:1025600006211D48FFF7F0FA18208DF824000120FD
:102570008DF827008DF8250000208DF8260009A889
:10258000FEF7B1F801211448FEF7C6FE08210C48F9
:10259000FEF7FCF9044604210948FEF7F7F944EA7E
:1025A00040000E4908700AB010BD4FF08041496AE2
:1025B00008B200214FF0804251627047000402408F
:1025C00000000240000800400008024000040140F2
:1025D00000000140000C0040004001403800002095
:1025E0003749096808B20021354A116070473549FA
:1025F000096808B20021334A116070473249496ABC
:1026000008B20021304A516270473049096808B267
:1026100000212E4A116070472D49086800212C4A7C
:102620001160704770B5002402212A48FFF7A3FA11
:1026300078B102212748FFF7AFFA08212648FEF7B4
:10264000A5F9054604212448FEF7A0F945EA400013
:10265000C4B204211F48FFF78EFA78B104211D4847
:10266000FFF79AFA08211C48FEF790F90546042165
:102670001948FEF78BF945EA4000C4B217480078C4
:1026800084421CD01548007800F0010040B904F0E5
:10269000020028B10E480068401C0D4908600CE09B
:1026A0000E48007800F0020038B904F0010020B1B3
:1026B00007480068401E064908600848047070BD5D
:1026C000240800402404014000000140240C004084
:1026D000340000200040014000000240380000208B
:1026E0001CB501210220FEF78DFB00208DF80400AF
:1026F00001208DF80700C002009002208DF805002F
:1027000069460E48FEF7E0F81CBD10B500244FF4F2
:1027100000610A48FEF73AF970B9142000F0BAFBDC
:1027200002E0142000F0B6FB4FF400610348FEF70E
:102730002DF90028F5D00124204610BD00040240E8
:102740001CB501210420FEF75DFB01208DF804007B
:1027500000208DF8060001208DF807000F20009062
:1027600002208DF8050069467D48FEF7ADF801218D
:102770001020FEF747FB01208DF8040000208DF8A3
:10278000060001208DF807000F20009002208DF830
:10279000050069467348FEF797F801210220FEF70D
:1027A00031FB01208DF8040000208DF80600012087
:1027B0008DF807004FF44050009002208DF805007E
:1027C00069466948FEF780F801210820FEF71AFBE8
:1027D00001208DF8040000208DF8060001208DF8FE
:1027E00007000320009002208DF8050069465F482D
:1027F000FEF76AF800F0BCF81CBD10B50446002CCA
:102800000BDB01215648FEF7DBF802215448FEF7A6
:10281000D9F8A0B200F095F90BE002215048FEF77C
:10282000CFF801214E48FEF7CDF8614288B200F0A2
:1028300088F910BD10B50446002C0BDB0221494875
:10284000FEF7BEF801214748FEF7BCF8A0B200F041
:102850007FF90BE001214348FEF7B2F8022141481D
:10286000FEF7B0F8614288B200F072F910BD10B501
:102870000446002C0BDB08213A48FEF7A1F804219E
:102880003848FEF79FF8A0B200F04DF90BE00421A4
:102890003448FEF795F808213248FEF793F8614274
:1028A00088B200F040F910BD10B50446002C0DDBD5
:1028B0004FF480512C48FEF783F84FF400512A481A
:1028C000FEF780F8A0B200F035F90DE04FF40051AA
:1028D0002548FEF775F84FF480512348FEF772F84B
:1028E000614288B200F026F910BD10B50446002CF4
:1028F0000BDB04211A48FEF763F808211848FEF79D
:1029000061F8A0B200F02BF90BE008211448FEF7A3
:1029100057F804211248FEF755F8614288B200F0DA
:102920001EF910BD10B50446002C0BDB01210F4829
:10293000FEF746F802210D48FEF744F8A0B200F079
:1029400015F90BE001210948FEF73AF80221074882
:10295000FEF738F8614288B200F008F910BD0000B7
:10296000000802400010024000040240000C024037
:1029700000B58BB001210220FEF78DFA0121402025
:10298000FEF789FA01210220FEF73CFA01210846F0
:10299000FEF738FA02208DF8280000208DF82A0072
:1029A0004CF20300099002208DF8290009A9734810
:1029B000FDF78AFF022200217048FEF710F802227C
:1029C00001216E48FEF70BF809220E216B48FEF735
:1029D00006F809220F216948FEF701F802208DF858
:1029E000280000208DF82A00C020099002208DF8D0
:1029F000290009A96248FDF767FF02220621604805
:102A0000FDF7EDFF022207215D48FDF7E8FF5D4875
:102A1000FFF7DFF80020ADF82000ADF81A006320C2
:102A2000079043F2FF10ADF8180000208DF8220047
:102A300006A95448FEF7E7FB5348FFF7CAF8002001
:102A4000ADF82000ADF81A006320079043F2FF10A4
:102A5000ADF8180000208DF8220006A94A48FEF7BC
:102A6000D2FB01A8FEF788FD6020ADF8040000202D
:102A7000ADF810000120ADF806000020039001A978
:102A80004048FEF755FC0020039001A93D48FEF7A1
:102A900088FC0020039001A93A48FEF7CFFC0020F3
:102AA000039001A93748FEF72FFD0020039001A9EC
:102AB0003548FEF73DFC0020039001A93248FEF79F
:102AC00070FC08212F48FEF7C0FD08212D48FEF7B5
:102AD000C5FD08212B48FEF7CEFD08212948FEF749
:102AE000D3FD01212748FEF7F9FB08212648FEF710
:102AF000ACFD08212448FEF7B1FD01212248FEF774
:102B0000EDFB01211F48FEF7F8FF01211E48FEF7EB
:102B1000F4FF01211B48FEF7FFFB01211A48FEF7D5
:102B2000FBFB0BB000BD10B5044621461548FEF76F
:102B300058FD10BD10B5044621461248FEF753FD5E
:102B400010BD10B5044621460E48FEF74EFD10BDDF
:102B500010B5044621460B48FEF749FD10BD10B5DF
:102B6000044621460848FEF73CFD10BD10B504465A
:102B700021460548FEF737FD10BD00000004024065
:102B800000000240000400400018004000B587B07B
:102B900001218804FEF77FF901210820FEF732F9B0
:102BA00002208DF8180000208DF81A0001208DF801
:102BB0001B004FF44070059002208DF8190005A904
:102BC0007D48FDF781FE072208217B48FDF707FFBE
:102BD000072209217848FDF702FF4FF4E130019008
:102BE0000020ADF810000C20ADF80E000020ADF86C
:102BF0000C00ADF80A00ADF8080001A96F48FFF716
:102C00000EF9012240F225516C48FFF746FA4FF4C5
:102C1000A060FDF763FD27208DF8000001208DF8EE
:102C200003008DF801008DF802006846FDF75BFD9A
:102C300001216248FFF77BF907B000BD10B50446DB
:102C400021465E48FFF79EF900BF80215B48FFF7F1
:102C500049FA0028F9D010BD70B505460E4600248B
:102C600004E0285DFFF7EAFF601C84B2B442F8DBA1
:102C700070BD70B50446002504E0605DFFF7DEFF1F
:102C8000681CC5B2605D0028F7D170BD10B5024662
:102C9000012000E050430B1EA1F10101FAD110BD4B
:102CA0002DE9F04106460C46002512E0601B411E4E
:102CB0000A20FFF7EBFFB6FBF0F00A21B0FBF1F2C0
:102CC00001FB120000F130073846FFF7B7FF681C20
:102CD000C5B2A542EADBBDE8F08170B504460D46F9
:102CE000E0B2FFF7ABFF204670BD0FB400B59BB05C
:102CF0001DA8019002A8019A1C9901F06FF800200C
:102D0000019002A8FFF7B5FF1BB05DF814FB10B5EA
:102D1000FF20FFF793FF04212948FFF79DFFFE20C6
:102D2000FFF78CFF10BD2748704710B520212548BC
:102D300000F055FD0020244908702449087010BD9A
:102D400021480078012804D100201F490870012083
:102D500070470020FCE710B540F225511748FFF7F7
:102D6000D7F938B31548FFF711F9C4B217480078FE
:102D70001F2812DA0D2C08D100201249134A1278AC
:102D800088540120104908700FE010490878411C50
:102D90000E4A11700B490C5407E0002009490B4AF8
:102DA0001278885401200849087040F225510348E0
:102DB000FFF7E9F910BD0000000C02400048004098
:102DC0003900002080010020410000204200002046
:102DD00010B504466FF00400FDF7D2FCE11704EBD8
:102DE0005171C1F3C701394A11701046007800EBE8
:102DF0004001C1EBC0104FF6FF7101EAC000344939
:102E0000088010BD0146314A12784A434FF0E02352
:102E10005A6100229A611A46126942F001021A614F
:102E200000BF4FF0E022106900F001021AB100F477
:102E30008032002AF5D04FF0E022126922F0010220
:102E40004FF0E0231A6100229A6170470146204A40
:102E500012884A434FF0E0235A6100229A611A46D1
:102E6000126942F001021A6100BF4FF0E0221069BE
:102E700000F001021AB100F48032002AF5D04FF0C0
:102E8000E022126922F001024FF0E0231A610022D1
:102E90009A61704770B504464FF4077094FBF0F0E8
:102EA000C6B24FF4077094FBF0F100FB114085B2FD
:102EB00005E04FF40770FFF7C9FF701EC6B2002E81
:102EC000F7D115B12846FFF7C1FF70BD44000020BF
:102ED00046000020B4EEE00AF1EE10FA01DDB0EE9B
:102EE000600AB1EE601AB4EEC10AF1EE10FA03D234
:102EF000B1EE601AB0EE410A704700B5F0EE401A2C
:102F0000B0EE602A31EEC20A80ED050A90ED070AA4
:102F1000D0ED050A30EE200A80ED070A90ED050A93
:102F2000D0ED040A30EE600A80ED060A90ED011A39
:102F3000D0ED072A21EE221AB0EE410A90ED091ACF
:102F4000F0EE410AFFF7C6FFD0ED000A90ED051A3A
:102F500000EE810AD0ED020A90ED061A00EE810A19
:102F600080ED080A90ED050A80ED040A90ED080A4C
:102F7000D0ED0A0AB4EEE00AF1EE10FA03DD90EDAE
:102F80000A0A80ED080A90ED080AD0ED0A0AF1EE6F
:102F9000600AB4EEE00AF1EE10FA05D290ED0A0AEA
:102FA000B1EE400A80ED080A90ED080A00BD80ED00
:102FB000000AC0ED010A80ED021A9FED3E2A80ED65
:102FC000082A80ED072A80ED052A80ED042A80ED8D
:102FD000032AC0ED0A1AC0ED091A7047B0EE401A74
:102FE00031EE600A80ED050A90ED050AD0ED041A75
:102FF00030EE610AD0ED001A20EE210AD0ED011A60
:1030000090ED052A01EE820AD0ED051A90ED032A13
:1030100071EE821A90ED042AF0EE002A42EEC21AF6
:1030200090ED022A02EE210AD0ED081A30EE210AB4
:1030300080ED080A90ED040A80ED030A90ED050A80
:1030400080ED040A90ED080AD0ED0A1AB4EEE10A08
:10305000F1EE10FA03DD90ED0A0A80ED080A90ED1A
:10306000080AD0ED0A1AF1EE611AB4EEE10AF1EEA7
:1030700010FA05D290ED0A0AB1EE400A80ED080A76
:1030800090ED080A704780ED000AC0ED010A80ED5E
:10309000021A9FED082A80ED082A80ED072A80EDAC
:1030A000052A80ED042A80ED032AC0ED0A1AC0ED3E
:1030B000091A704700000000704710B588B0FFF78C
:1030C0003FFE00287ED02021684600F088FBFFF7F5
:1030D0002AFE044620222146684600F09DFBFFF7A9
:1030E00024FEB2A1684600F085FBB8B19DF801004E
:1030F0000D2806D09DF801000A2802D09DF8010095
:1031000060B96420AA490880AA490880AA490880B1
:10311000AA490880AAA0FFF7ACFD44E1B0A1684627
:1031200000F068FBC0B19DF801000D2806D09DF8A5
:1031300001000A2802D09DF8010068B96FF0630011
:103140009B4908809B4908809B4908809B490880CF
:10315000A4A0FFF78EFD26E1AAA1684600F04AFB75
:10316000D8B19DF801000D2806D09DF801000A286D
:1031700002D09DF8010080B96FF063008C4908808F
:1031800064208C49088040428B49088064208B4928
:1031900008809DA0FFF76DFD05E1A3A1684600F042
:1031A00029FBE0B19DF801000D2806D09DF8010033
:1031B0000A2802D09DF8010088B964207C49088063
:1031C000404200E0F0E07B49088064207A490880B2
:1031D00040427A49088095A0FFF74BFDE3E09BA1B0
:1031E000684600F007FBC0B19DF801000D2806D02D
:1031F0009DF801000A2802D09DF8010068B96420FA
:103200006B4908806B49088040426B4908806B49D4
:1032100008808FA0FFF72DFDC5E096A1684600F05D
:10322000E9FAC8B19DF801000D2806D09DF801000B
:103230000A2802D09DF8010070B96FF063005C4964
:1032400008805C49088064205B4908805B490880ED
:1032500089A0FFF70EFDA6E090A1684600F0CAFA2B
:10326000D0B19DF801000D2806D09DF801000A2874
:1032700002D09DF8010078B900204D4908806420F3
:103280004C49088000204C49088064204B49088044
:1032900083A0FFF7EEFC86E08AA1684600F0AAFA58
:1032A000D0B19DF801000D2806D09DF801000A2834
:1032B00002D09DF8010078B964203D4908800020C3
:1032C0003C49088064203C49088000203B49088034
:1032D0007DA0FFF7CEFC66E084A1684600F08AFA84
:1032E000E0B19DF801000D2806D09DF801000A28E4
:1032F00002D09DF8010088B96FF063002C49088066
:1033000000202C4908806FF063002B4908800020C2
:103310002A49088076A0FFF7ACFC44E07DA168460E
:1033200000F068FAE0B19DF801000D2806D09DF884
:1033300001000A2802D09DF8010088B900201C492C
:1033400008806FF063001B49088000201A4908803C
:103350006FF06300194908806FA0FFF78AFC22E034
:1033600076A1684600F046FAB8B19DF801000D2834
:1033700006D09DF801000A2802D09DF8010060B92E
:1033800000200B4908800B4908800B4908800B4935
:1033900008806BA0FFF76DFC05E06DA0FFF769FCEE
:1033A0007748FFF766FC00BF08B010BD3100000091
:1033B000480000204A0000204C0000204E00002061
:1033C000D6B4D0D0A3BAC7B0BDF8A3A8C2F3BFCBC0
:1033D000C4C9C4B7C2D6C8ABCFF2A3A90D0A0000B6
:1033E00032000000D6B4D0D0A3BABAF3CDCBA3A894
:1033F000C2F3BFCBC4C9C4B7C2D6C8ABCFF2A3A96E
:103400000D0A000033000000D6B4D0D0A3BAD7F321
:10341000D2C6A3A8C2F3BFCBC4C9C4B7C2D6BAE14F
:10342000CFF2A3A90D0A000034000000D6B4D0D01A
:10343000A3BAD3D2D2C6A3A8C2F3BFCBC4C9C4B760
:10344000C2D6BAE1CFF2A3A90D0A000035000000F0
:10345000D6B4D0D0A3BAD4ADB5D8D7F3D7AAA3A841
:10346000C2F3BFCBC4C9C4B7C2D6D0FDD7AAA3A9E3
:103470000D0A000036000000D6B4D0D0A3BAD4ADF7
:10348000B5D8D3D2D7AAA3A8C2F3BFCBC4C9C4B7F7
:10349000C2D6D0FDD7AAA3A90D0A000037000000AC
:1034A000D6B4D0D0A3BAD7F3C7B0D0B1D2C6A3A8F0
:1034B000C2F3BFCBC4C9C4B7C2D6D0B1CFF2A3A99F
:1034C0000D0A000038000000D6B4D0D0A3BAD3D281
:1034D000C7B0D0B1D2C6A3A8C2F3BFCBC4C9C4B7CA
:1034E000C2D6D0B1CFF2A3A90D0A00003900000066
:1034F000D6B4D0D0A3BAD7F3BAF3D0B1D2C6A3A86A
:10350000C2F3BFCBC4C9C4B7C2D6D0B1CFF2A3A94E
:103510000D0A000041000000D6B4D0D0A3BAD3D227
:10352000BAF3D0B1D2C6A3A8C2F3BFCBC4C9C4B743
:10353000C2D6D0B1CFF2A3A90D0A0000300000001E
:10354000D6B4D0D0A3BACDA3D6B90D0A00000000DE
:10355000D6B8C1EECEDED0A7A3A1C7EBCAE4C8EBB4
:10356000312D3130A3A8C2F3BFCBC4C9C4B7C2D672
:10357000C8ABCFF2BFD8D6C6A3A90D0A0000000081
:10358000DC4600081CB500200090019001210220BB
:10359000FDF738FC4FF40070009001208DF8040016
:1035A00000208DF8060003208DF8050000208DF81E
:1035B000070069467F48FDF787F94FF48070009057
:1035C00000208DF8040003208DF8050001208DF8FF
:1035D000070069467748FDF777F900224FF400713C
:1035E0007448FDF7F1F91CBD2DE9F04F2DED068B68
:1035F0008DB0044600250026A9460027AA46AB4602
:1036000000200C9080469FED6C0AB0EE408A9FED42
:103610006A0AF0EE408A9FED680AF0EE409ADFED0C
:10362000671A9FED671ADFED660AB1EE040A01A87A
:10363000FFF729FD04F00100002800DD06E0012568
:10364000B7EE000A38EE000AB0EE408AC4F340003C
:10365000002801DD002606E00126B7EE000A38EE5C
:10366000000AB0EE408AC4F38000002802DD4FF06B
:10367000000907E04FF00109B7EE000A38EE000A32
:10368000B0EE408AC4F3C000002801DD002706E048
:103690000127B7EE000A38EE000AB0EE408AC4F304
:1036A0000010002802DD4FF0000A07E04FF0010A89
:1036B000B7EE000A38EE000AB0EE408AC4F34010BC
:1036C000002802DD4FF0000B07E04FF0010BB7EED2
:1036D000000A38EE000AB0EE408AC4F380100028D9
:1036E00002DD00200C9007E001200C90B7EE000AEC
:1036F00038EE000AB0EE408AE009002802DD4FF003
:10370000000807E04FF00108B7EE000A38EE000AA3
:10371000B0EE408AB5EEC08AF1EE10FA03D1B7EEF2
:10372000000AB0EE408A05EB460009EB4901084467
:1037300000EB87000AEB8A0108440BEB4B0100EB1E
:1037400041010C98C0EBC000084400EBC80000EE3B
:10375000100AB8EEC00AC0EE080AF0EE608AF5EE74
:10376000C08AF1EE10FA02D0B0EE689A06E0F5EEEB
:10377000C08AF1EE10FA01D1F0EE498AF0EE680A43
:10378000B1EE020A01A8FFF729FCF0EE409A19EE0B
:10379000900A00F04DF841EC1A0B53EC1A2B09A0DB
:1037A00000F0F8FAB0EE690A0DB0BDEC068BBDE88A
:1037B000F08F000000040240000000000000C8423A
:1037C000CDCCCC3D6368613A252E31660D0A0000F0
:1037D000D2B201E000F8012B491EFBD27047002253
:1037E000F6E710B513460A4604461946FFF7F0FF00
:1037F000204610BD30B505462A460B4612F8010B8F
:1038000013F8014B08B1A042F8D01CB1002802D037
:103810006D1CF1E7284630BD10B5044604E00B7876
:1038200000F8013B03B1491C521EF8D2204610BDDE
:1038300000F0004230F000400AD0C10D01F5607187
:10384000C0F3160042EA0151C20840071143704715
:1038500000200146704730B50B460146002020226B
:10386000012409E021FA02F59D4205D303FA02F58D
:10387000491B04FA02F52844151EA2F10102F1DCED
:1038800030BD2DE9F05F0546002092469B468846F4
:103890000646814640241BE02846414647462246CC
:1038A00000F0F9F953465A46C01A914110D3114617
:1038B0001846224600F0E0F92D1A67EB01084F4642
:1038C00022460120002100F0D7F917EB00094E41F4
:1038D000201EA4F10104DFDC484631462A46434657
:1038E000BDE8F09F2DE9FE4F804681EA0300C00F3E
:1038F0000C46009021F0004123F00045B8EB020097
:10390000A94105D24046214690461C460B46024638
:1039100023F00040104347D0270DC7F30A00C3F33C
:103920000A510290401A019040286BDAC3F3130049
:1039300040F4801B0098924620B10023D2EB030A8A
:1039400063EB0B0B01985946C0F14002504600F062
:1039500093F906460D4650465946019A00F0ABF9D8
:1039600010EB08006141002487EA115284EAE773F2
:103970001A4340D0009A62B3019A012A4FEA0752D3
:1039800015DC001B61EB02014FF0004202EA075216
:10399000CDE90042001C41F5801132462B4600F073
:1039A000ABF903B0BDE8F08F40462146F9E7001BB4
:1039B00061EB0201001C41F5801300185B412018E7
:1039C000A2F5001747EB030140EAD570B6196D4127
:1039D00011E06D084FEA360645EAC0754FEA075216
:1039E000001B61EB0201001C41F5801149084FEA00
:1039F00030000019514132462B4603B0BDE8F04F6C
:103A000000F06BB90098012240000023D0EB0202C5
:103A100063EBE073009821464FEAE074B8EB0000D6
:103A200061EB0401E9E783F000435BE781F00041CB
:103A300058E72DE9FE4F81EA030404F0004421F029
:103A4000004100944FF0000B23F0004350EA0104C2
:103A50005ED052EA03045BD0C3F30A54C1F30A55A3
:103A60002C44A4F2F3340194A0FB0254C1F31301DB
:103A700041F48011C3F3130343F4801301FB0244A8
:103A800000FB034E840A970A44EA815447EA8357AD
:103A9000A4FB076802958D0A05FB07854FEA932C66
:103AA00004FB0C542705029D4FEA065847EA1637D7
:103AB000B5EB08056EEB070C870E920E47EA8117EF
:103AC00042EA8312A7FB0201B6EB0B0164EB000490
:103AD0002B0D43EA0C335E1844EB1C50DA4651467A
:103AE000E7FB0201C5F313044FEA0B3343EA145317
:103AF0004FEA0432019C43EA0603A4F10C04029449
:103B0000009CCDE900B400F0F7F803B0BDE8F08FF9
:103B100000200146F9E72DE9F04D81EA030404F0A5
:103B2000004B21F0004514464FF0000A23F00041FD
:103B300050EA050220D054EA01021DD0C5F30A570D
:103B40000246C5F31303C1F31300C1F30A5640F450
:103B5000801543F48013A7EB0608101BD64608F225
:103B6000FD3873EB050002D308F1010801E092185B
:103B70005B41B8F1000F03DA00200146BDE8F08D8B
:103B800000204FF48011064684460EE0171B73EBAD
:103B9000050705D3121B63EB050306434CEA010C32
:103BA00049084FEA300092185B4150EA0107EDD115
:103BB00052EA030012D082EA040083EA05010843B6
:103BC00005D0101BAB4106D20122002306E00022E3
:103BD0004FF0004302E06FF0010253101AEB0600B1
:103BE0004CEB085110EB0A0041EB0B01BDE8F04D26
:103BF00000F073B8C1F30A52C1F3130140F2FF336E
:103C000041F480119A4202DA00200146704740F2E6
:103C100033439A42A2F2334202DC524200F03BB8F4
:103C200000F02AB830B5041E71F1000404DB4FF037
:103C30000044404264EB0101141E73F1000405DBF3
:103C40001C464FF00043524263EB0403994208BF05
:103C5000904230BD064C074D06E0E06840F001039D
:103C600094E8070098471034AC42F6D3FCF790FA7A
:103C70003047000850470008202A04DB203A00FAA9
:103C800002F1002070479140C2F1200320FA03F3B3
:103C9000194390407047202A04DB203A21FA02F0B1
:103CA0000021704721FA02F3D040C2F12002914076
:103CB000084319467047202A06DBCB17203A41FA01
:103CC00002F043EAE07306E041FA02F3D040C2F1A9
:103CD0002002914008431946704710B5141E73F135
:103CE000000408DA401C41F1000192185B411A43BC
:103CF00001D120F0010010BD2DE9F04D92469B4608
:103D000011B1B1FA81F202E0B0FA80F220329046AD
:103D1000FFF7B2FF04460F4640EA0A0041EA0B01F2
:103D200053465A46084313D0114653EA010019D0AE
:103D3000C8F140025046FFF7AEFF05460E4650461A
:103D400059464246FFF798FF084305D0012004E09A
:103D500020463946BDE8F08D0020054346EAE0766E
:103D60002C4337430A986305E40AA0EB08000022BD
:103D7000FD0A44EA47540A3002D500200146E9E72B
:103D8000010510196941DDE9084500196941BDE8DF
:103D9000F04DA2E70FB4054B10B503A9044A0298F1
:103DA00000F000F910BC5DF814FB0000DB2C0008EB
:103DB000500000200FB4084B10B504A902AA0398C4
:103DC00000F0F0F8044602A9002000F082FC204632
:103DD00010BC5DF814FB0000D346000837B514464C
:103DE0000846064B6A46214600F0DCF80446694660
:103DF000002000F06EFC20463EBD0000D3460008C7
:103E000002E008C8121F08C1002AFAD170477047A3
:103E1000002001E001C1121F002AFBD17047000001
:103E20002DE9FF5F82B00021DDE90430020DDDF8ED
:103E300040B0034318D044F61050A2F2FF32424380
:103E40001514119801281FD0A5EB0B00401C5FEA48
:103E5000000A4FF000064E4FDFF83891B04650464A
:103E600015D5CAF1000413E0119801244AA30128D2
:103E700001D16FEA0B010298119AC0E90031C0E943
:103E8000024206B0BDE8F09FCBF10000DFE7044638
:103E90000021404A491842EB0450CDE9001012E0DD
:103EA000E00707D032463B4640464946FFF7C1FD92
:103EB0008046894632463B4610461946FFF7B9FD13
:103EC00006460F466410002CEAD1DDE90401DDE965
:103ED0000023BAF1000F06DAFFF7ABFD42464B466E
:103EE000FFF7A7FD05E0FFF716FE42464B46FFF73A
:103EF00012FE04460E460022284BFFF793FE03D81D
:103F00004FF0FF30014607E00022254B20463146A6
:103F1000FFF7E8FCFFF76EFE102409E0002C0ADB37
:103F20000A220023FFF7ADFC039B30321A55641EB2
:103F300050EA0102F2D1641C039AC4F11103144443
:103F4000119A012A03D0012208430DD10AE0084347
:103F500004D000204FF0110B119072E7A3EB0B057A
:103F60006D1E0DE05B4504DD4FF0000205F101051B
:103F700004E003DA4FF00002A5F10105002AECD0BD
:103F800002981199C0E90231C0E9004579E70000C3
:103F9000000014400000F03F300000000000F0433B
:103FA0000000E03F2DE9FF4F95B09B46894606464D
:103FB00000250FE2252877D100242746F84A012161
:103FC000059400E0044316F8013F203B01FA03F09A
:103FD0001042F7D130782A2811D06FF02F033078B3
:103FE000A0F13002092A16D8059A44F0020402EB27
:103FF000820203EB42021044761C0590EFE759F869
:10400000042B0592002A03DA504244F40054059030
:1040100044F00204761C30782E2816D116F8010FD1
:1040200044F004042A280DD06FF02F023078A0F15C
:104030003003092B09D807EB870302EB4303C718AA
:10404000761CF3E759F8047B761C30786C280FD087
:1040500006DC4C2817D068280DD06A2814D104E05B
:10406000742810D07A280FD10DE044F400140AE02F
:1040700044F4801401E044F440147278824202D186
:1040800004F58014761C761C307866280BD013DC7F
:10409000582877D009DC002875D04528F6D0462866
:1040A000F4D047281AD19DE118E0632835D0642860
:1040B00079D0652812D195E1702873D008DC672883
:1040C000F1D069286FD06E280DD06F2806D1B5E0E9
:1040D00073282CD0752875D0782874D05A46179933
:1040E00090476D1C75E1C4F30250022809D00328E3
:1040F0000DD0D9F8001004280DD00D6009F1040985
:1041000067E1D9F80010EA17C1E90052F6E7D9F8DB
:1041100000100D80F2E70D70F0E719F8041B8DF820
:10412000001000208DF80100EA46012003E059F854
:1041300004AB4FF0FF3061074FF0000102D40DE0F7
:1041400008F101018846B9420FDA8045F8DB1AF818
:1041500008100029F4D108E008F1010188468142E5
:10416000FADB1AF808100029F6D105985B46A0EB97
:10417000080721463846179A00F094FA284400EBC5
:10418000080507E04DE029E10DE01AF8010B5A4659
:1041900017999047B8F10108F7D25B462146384697
:1041A000179A13E142E00A220092C4F302524FF040
:1041B000000A022A08D059F804CB032A4FEAEC710E
:1041C0000AD00DE029E02AE009F1070121F00702F9
:1041D000F2E802C1914609E00FFA8CFC4FEAEC715B
:1041E000042A03D14FFA8CFC4FEAEC71002907DA5C
:1041F0000A460021DCF1000C61EB02012D2202E0F5
:10420000220504D52B228DF80420012203E0E207C9
:1042100001D02022F7E7904659E00A2102E010225F
:104220000DE010214FF0000A00910BE010224FF03A
:10423000000A44F004040827009203E008224FF02B
:10424000000A0092C4F30252022A05D059F804CBA6
:104250000021032A08D009E009F1070121F0070233
:10426000F2E802C1914605E01FFA8CFC042A01D154
:104270000CF0FF0C4FF00008220728D5702806D05C
:10428000009B83F0100353EA0A0305D00EE040229E
:104290008DF80420012208E05CEA010206D03022F9
:1042A0008DF804208DF8050002229046009B83F0D3
:1042B000080353EA0A030AD15CEA010201D162074A
:1042C00005D530228DF804204FF001087F1E5828B4
:1042D00004D034A003900EA802900DE036A0F9E7B8
:1042E00053466046009AFFF7CCFA84460398825CF6
:1042F0000298401E029002705CEA0100F0D1029820
:1043000006A9081A00F1200A600702D524F48034B7
:1043100000E00127574502DDA7EB0A0000E000207E
:1043200000EB0A01009005984144401A0590E00313
:1043300006D45B462146179A059800F0B3F9054468
:10434000002706E001A85A46C05D179990476D1CEA
:104350007F1C4745F6DBE0030CD55B462146179AE8
:10436000059800F09FF9054404E030205A4617995B
:1043700090476D1C0099481E00900029F5DC08E06C
:10438000029802995A460078491C02911799904761
:104390006D1CBAF10001AAF1010AF1DC65E100002F
:1043A000092801003031323334353637383961620B
:1043B00063646566000000003031323334353637CF
:1043C00038394142434445460000000000F058F9A6
:1043D0000544761C307800287FF4ECAD19B02846EF
:1043E000BDE8F08F620700D4062709F1070222F02A
:1043F000070CFCE80223E14603F000485FEA080CE2
:1044000002D00FF2702C0DE05FEA045C02D50FF2CF
:10441000682C07E05FEAC47C02D00FF2602C01E058
:10442000AFF2700C4FF0FF3823F00043CDF850C0CE
:1044300065280CD006DC452809D046281DD0472821
:104440003DD13DE0662818D067287ED138E00021B4
:10445000112F01DB112000E0781CCDE9000106A935
:104460000EA8FFF7DDFCDDE90F010E9A0391002194
:10447000009207F1010A04914DE04FF000400097CF
:10448000CDE9011006A90EA8FFF7CAFCDDE90F026D
:1044900003920E9B11990022DDF80CA00093049268
:1044A00011B9791C00EB010AB7EB0A0004D4C0F182
:1044B000FF3007F1010A0490AAEB0700019044E0E5
:1044C000012F00DA01270021112F01DD112000E06A
:1044D0003846CDE9000106A90EA8FFF7A1FCDDE9E9
:1044E0000F010E9A0391002104910092BA46210710
:1044F0000CD40399514500DA8A46BAF1010F05DD63
:10450000009AAAF10101515C302908D0B84202DAC0
:1045100010F1040F06DA0121CDE9011015E0AAF12E
:104520000101E9E7002805DC049901440491AAEBA4
:10453000000102E0411C514500DD8A460499401A01
:10454000401C01904FF000400290200704D40198D5
:10455000504501DBCDF8048000208DF84F00029813
:104560000DF14F07B0F1004F25D02B200E9002988F
:104570004FF0020800280CDA404202902D200E90E5
:1045800007E00A210298FFF766F93031029007F838
:10459000011DB8F10001A8F10108F2DC0298002821
:1045A000EFD1791E0E980870307800F0200040F0AE
:1045B000450007F8020D12A8C01B00F10708149867
:1045C000007800B1012000EB0A01019801EBE071D5
:1045D00005984144401A401E0590E00306D45B460E
:1045E0002146179A059800F05DF805441498007864
:1045F00018B15A46179990476D1CE00324D55B46C5
:104600002146179A059800F04DF805441CE00498DF
:10461000002807DBDDE90301884203DD0098405CE8
:10462000179901E0179930205A469047049805F1F0
:104630000105401C04900198401E019004D12E20D9
:104640005A46179990476D1CBAF10001AAF1010A68
:10465000DDDC05E017F8010B5A46179990476D1CF1
:10466000B8F10001A8F10108F4DC5B462146179A75
:104670000598ABE62D0000002B0000002000000094
:104680002DE9F041044600251E461746880404D44F
:1046900005E039462020B0476D1C641EF9D5284638
:1046A000BDE8F0812DE9F041044600251E46904604
:1046B000C80301D5302700E02027880404D505E091
:1046C00041463846B0476D1C641EF9D52846BDE802
:1046D000F0810A68531C0B6010707047313DC7B001
:1046E000BDF820323DBAF3CDCB20333DD7F3D2C64F
:1046F00020343DD3D2D2C620353DD4ADB5D8D7F382
:10470000D7AA20363DD4ADB5D8D3D2D7AA20373DCD
:10471000D7F3C7B020383DD3D2C7B020393DD7F347
:10472000BAF32031303DCDA3D6B90D0A0000000008
:10473000504700080000002054000000003E000820
:10474000A4470008540000204C050000103E00085B
:104750000000000000000000000000000000000059
:10476000007A030A000000000000000001020304B8
:104770000607080900000000010203040102030407
:10478000060708090000000000000000000000000B
:104790000000000000000000000000000000000019
:0447A0000000000015
:040000050800018965
:00000001FF
